:100000000C942A000C9447000C9447000C94470071
:100010000C9447000C9447000C9447000C94470044
:100020000C9447000C9447000C9447000C94470034
:100030000C9447000C9447000C9447000C94470024
:100040000C9447000C9447000C9447000C94470014
:100050000C94470011241FBECFE5D8E0DEBFCDBF12
:1000600010E0A0E6B0E0E2EBF5E202C005900D92F0
:10007000A83AB107D9F710E0A8EAB0E001C01D9294
:10008000A73BB107E1F70E947A0E0C94D7120C94AB
:100090000000EF92FF920F931F937B018C0120E0F1
:1000A00030E040E05FE40E94490388238CF0C801FF
:1000B000B70120E030E040E05FE40E94C1010E940F
:1000C000A9039B01AC01205030404040504806C07D
:1000D000C801B7010E94A9039B01AC01B901CA0183
:1000E0001F910F91FF90EF900895A0E0B0E0EBE733
:1000F000F0E00C94FF0FDC012B01FA019C9192308F
:1001000008F439C1EB018881823008F433C194309E
:1001100069F4843009F02FC111969C91119789815F
:10012000981709F428C1A0EAB0E025C1843009F489
:1001300021C18230A9F4923009F01DC19A01AD01AC
:1001400088E0EA010990AE01E90109929E0181501F
:10015000C1F7E201898111969C918923818308C1AD
:10016000923009F407C112962D903C901397EB0141
:100170008A819B811496AD90BD90CD90DC901797AD
:10018000EC80FD800E811F819101281B390BB90184
:1001900037FF04C066277727621B730B6032710537
:1001A0000CF061C0121613066CF537014801062EDB
:1001B00004C096948794779467940A94D2F721E0C8
:1001C00030E040E050E004C0220F331F441F551FB1
:1001D0006A95D2F721503040404050402E213F21B7
:1001E00040235123211531054105510521F021E01E
:1001F00030E040E050E079018A01E628F72808293C
:1002000019293CC0232BD1F1260E371E350146019A
:10021000062E04C096948794779467940A94D2F734
:1002200021E030E040E050E004C0220F331F441FC3
:10023000551F6A95D2F721503040404050402A2146
:100240003B214C215D21211531054105510521F04E
:1002500021E030E040E050E059016A01A628B728CB
:10026000C828D9280BC0821593052CF01C01AA249C
:10027000BB24650103C0EE24FF24870111969C91E5
:10028000D20111968C91981709F445C0992339F041
:10029000A80197012A193B094C095D0906C0A6016E
:1002A00095012E193F09400B510B57FD08C01182D3
:1002B0003382228224833583468357831DC081E0A5
:1002C00081833382228288279927DC01821B930B4A
:1002D000A40BB50B84839583A683B7830DC0220F2F
:1002E000331F441F551F24833583468357838281E0
:1002F000938101979383828324813581468157813D
:10030000DA01C9010197A109B1098F5F9F4FAF4F72
:10031000BF4328F30BC0918333822282EA0CFB1C7B
:100320000C1D1D1DE482F5820683178383E0808304
:10033000248135814681578157FF1AC0C901AA27F8
:1003400097FDA095BA2F81709070A070B0705695EF
:10035000479537952795822B932BA42BB52B848318
:100360009583A683B7838281938101969383828349
:10037000DF0101C0D201CD01CDB7DEB7E2E10C94BF
:100380001B10A0E2B0E0E7ECF1E00C940B106983E5
:100390007A838B839C832D833E834F835887E9E048
:1003A000EE2EF12CEC0EFD1ECE010196B7010E943F
:1003B000D2048E010F5E1F4FCE010596B8010E9438
:1003C000D2048A8991E089278A8BC701B801AE01DE
:1003D000475E5F4F0E9475000E94FD03A096E6E015
:1003E0000C942710A0E2B0E0E8EFF1E00C940B10C1
:1003F00069837A838B839C832D833E834F835887C5
:10040000F9E0EF2EF12CEC0EFD1ECE010196B701A6
:100410000E94D2048E010F5E1F4FCE010596B801D7
:100420000E94D204C701B801AE01475E5F4F0E942F
:1004300075000E94FD03A096E6E00C942710A0E250
:10044000B0E0E5E2F2E00C94FF0F69837A838B83DE
:100450009C832D833E834F835887CE010196BE0136
:10046000675F7F4F0E94D204CE010596BE016F5E8A
:100470007F4F0E94D2049985923088F0898982301A
:10048000C8F0943019F4823051F404C0843029F457
:10049000923081F480EA90E0C6C0923049F420E0C6
:1004A0009A858A89981321E02A87CE010996BBC0D4
:1004B000823049F420E09A858A89981321E02A8BBA
:1004C000CE014196B0C02D843E844F8458886D88FB
:1004D0007E888F88988CEE24FF248701AA24BB2471
:1004E000650140E050E060E070E0E0E0F0E0C10174
:1004F00081709070892BE9F0E60CF71C081D191D1E
:100500009A01AB012A0D3B1D4C1D5D1D80E090E062
:10051000A0E0B0E0E614F7040805190520F481E036
:1005200090E0A0E0B0E0BA01A901480F591F6A1F8E
:100530007B1FAA0CBB1CCC1CDD1C97FE08C081E0F5
:1005400090E0A0E0B0E0A82AB92ACA2ADB2A3196B6
:10055000E032F10549F0660C771C881C991C569412
:10056000479437942794C3CFFA85EA892B893C892D
:100570008B859C85280F391F2E5F3F4F17C0CA01FE
:1005800081709070892B61F016950795F794E79428
:1005900080E090E0A0E0B0E8E82AF92A0A2B1B2BC3
:1005A00076956795579547952F5F3F4F77FDE7CF36
:1005B0000CC0440F551F661F771F17FD4160EE0CDE
:1005C000FF1C001F111F21503040403090E05907A0
:1005D00090E0690790E4790760F32B8F3C8FDB0193
:1005E000CA018F779070A070B07080349105A1051A
:1005F000B10561F447FD0AC0E114F10401051105DC
:1006000029F0405C5F4F6F4F7F4F40781A8EFE1786
:1006100011F081E08A8F4D8F5E8F6F8F78A383E01A
:10062000898FCE0149960E94FD03A096E2E10C94C9
:100630001B10A8E1B0E0EFE1F3E00C940B1069832C
:100640007A838B839C832D833E834F83588789E0F5
:10065000E82EF12CEC0EFD1ECE010196B7010E9492
:10066000D2048E010F5E1F4FCE010596B8010E9485
:10067000D2048985823040F08989823028F0C70110
:10068000B8010E944A0501C08FEF6896E6E00C941D
:100690002710A8E1B0E0EFE4F3E00C940B106983BD
:1006A0007A838B839C832D833E834F83588789E095
:1006B000E82EF12CEC0EFD1ECE010196B7010E9432
:1006C000D2048E010F5E1F4FCE010596B8010E9425
:1006D000D2048985823040F08989823028F0C701B0
:1006E000B8010E944A0501C08FEF6896E6E00C94BD
:1006F0002710A8E1B0E0EFE7F3E00C940B1069835A
:100700007A838B839C832D833E834F83588789E034
:10071000E82EF12CEC0EFD1ECE010196B7010E94D1
:10072000D2048E010F5E1F4FCE010596B8010E94C4
:10073000D2048985823040F08989823028F0C7014F
:10074000B8010E944A0501C081E06896E6E00C9479
:100750002710ACE0B0E0EFEAF3E00C940F106983EF
:100760007A838B839C83CE010196BE016B5F7F4FA2
:100770000E94D2048D81823061F1823050F1843048
:1007800021F48E81882351F12EC02F81388537FDC9
:1007900020C06E812F3131051CF06623F9F023C093
:1007A0008EE190E0821B930B29853A854B855C8511
:1007B00004C056954795379527958A95D2F76623B5
:1007C000B1F050954095309521953F4F4F4F5F4F79
:1007D0000EC020E030E040E050E009C02FEF3FEFD6
:1007E0004FEF5FE704C020E030E040E050E8B9019F
:1007F000CA012C96E2E00C942B10DF92EF92FF924C
:100800000F931F93FC01E480F58006811781D1804E
:100810008081823048F480E090E0A0E1B0E0E82AF6
:10082000F92A0A2B1B2BA5C0843009F49FC0823003
:1008300021F4EE24FF24870105C0E114F104010531
:10084000110519F4E0E0F0E096C0628173819FEF3A
:10085000623879070CF05BC022E83FEF261B370BAC
:100860002A3131052CF020E030E040E050E02AC091
:10087000B801A701022E04C0769567955795479554
:100880000A94D2F781E090E0A0E0B0E004C0880FC5
:10089000991FAA1FBB1F2A95D2F70197A109B10979
:1008A0008E219F21A023B1230097A105B10521F03E
:1008B00081E090E0A0E0B0E09A01AB01282B392B59
:1008C0004A2B5B2BDA01C9018F779070A070B07052
:1008D00080349105A105B10539F427FF09C0205CDA
:1008E0003F4F4F4F5F4F04C0215C3F4F4F4F5F4F13
:1008F000E0E0F0E02030A0E03A07A0E04A07A0E402
:100900005A0710F0E1E0F0E079018A0127C0603871
:10091000710564F5FB01E158FF4FD801C7018F77DE
:100920009070A070B07080349105A105B10539F4C4
:10093000E7FE0DC080E490E0A0E0B0E004C08FE3EB
:1009400090E0A0E0B0E0E80EF91E0A1F1B1F17FFA1
:1009500005C016950795F794E794319687E01695AC
:100960000795F794E7948A95D1F705C0EE24FF2404
:100970008701EFEFF0E06E2F679566276795902F60
:100980009F77D794DD24D7948E2F8695492F462BB9
:10099000582F5D29B701CA011F910F91FF90EF9069
:1009A000DF900895FC01DB01408151812281622F9B
:1009B0006F7770E0221F2227221F9381892F880FD3
:1009C000822B282F30E0991F9927991F11969C930D
:1009D000119721153105A9F54115510561057105DD
:1009E00011F482E037C082E89FEF13969C938E93B8
:1009F00012979A01AB0167E0220F331F441F551F66
:100A00006A95D1F783E08C930DC0220F331F441FEA
:100A1000551F12968D919C911397019713969C9355
:100A20008E931297203080E0380780E0480780E4FA
:100A3000580758F314962D933D934D935C93179755
:100A400008952F3F310579F4411551056105710570
:100A500019F484E08C93089564FF03C081E08C93C3
:100A600012C01C9210C02F57304013963C932E9307
:100A7000129783E08C9387E0440F551F661F771F02
:100A80008A95D1F7706414964D935D936D937C9322
:100A9000179708951F93DC01FB019C91923008F495
:100AA00047C08081823008F443C0943051F41196DD
:100AB0001C91843099F58181682F70E0611B710968
:100AC0003FC0843021F0923031F48230B9F181811D
:100AD000882389F12DC011961C9111978230F1F075
:100AE00081811817D9F412962D913C911397828128
:100AF00093818217930794F028173907BCF0149656
:100B00008D919D910D90BC91A02D248135814681C0
:100B10005781281739074A075B0718F4112341F05A
:100B20000AC082179307A407B50740F4112319F0F0
:100B300061E070E005C06FEF7FEF02C060E070E041
:100B4000CB011F910895DF93CF93CDB7DEB7A7E216
:100B5000B0E0E7E2F0E0808180648C93A7E2B0E04F
:100B6000E7E2F0E080818F778C93A7E2B0E0E7E2E4
:100B7000F0E0808180628C93A6E2B0E0E6E2F0E0F3
:100B8000808181608C93A6E2B0E0E6E2F0E08081B3
:100B900082608C93A6E2B0E0E6E2F0E080818460BF
:100BA0008C93A6E2B0E0E6E2F0E0808180688C936E
:100BB000CF91DF910895DF93CF930F92CDB7DEB73A
:100BC0008983A7E2B0E0E7E2F0E08081807E8C9349
:100BD000A7E2B0E0E7E2F0E090818981892B8C9375
:100BE000A6E2B0E0E6E2F0E0808180648C93E6E289
:100BF000F0E0808182958F70882F90E081709070F6
:100C00000097A9F3A6E2B0E0E6E2F0E0808180611F
:100C10008C93E5E2F0E080810F90CF91DF91089511
:100C2000DF93CF9300D0CDB7DEB79A8389838981D4
:100C30009A81009731F089819A819093A9008093DD
:100C4000A8000F900F90CF91DF9108951F920F92FF
:100C50000FB60F9211242F933F934F935F936F938F
:100C60007F938F939F93AF93BF93EF93FF93DF9304
:100C7000CF93CDB7DEB78091A8009091A9000097DF
:100C800029F0E091A800F091A9000995CF91DF919A
:100C9000FF91EF91BF91AF919F918F917F916F9154
:100CA0005F914F913F912F910F900FBE0F901F902A
:100CB0001895DF93CF93CDB7DEB727970FB6F8948B
:100CC000DEBF0FBECDBF89836A834B838A818130AB
:100CD00009F070C08981282F30E03F832E838E81F8
:100CE0009F818330910551F12E813F812430310560
:100CF00034F48E819F818230910561F0D3C02E81C2
:100D00003F812430310571F18E819F8185309105BD
:100D1000E9F1C8C0ABE3B0E0EBE3F0E08081482F3D
:100D20008B81282F30E081E090E0022E02C0880FF6
:100D3000991F0A94E2F7842B8C93B4C0A8E3B0E027
:100D4000E8E3F0E08081482F8B81282F30E081E0BC
:100D500090E0022E02C0880F991F0A94E2F7842BBC
:100D60008C93A0C0A5E3B0E0E5E3F0E08081482FDC
:100D70008B81282F30E081E090E0022E02C0880FA6
:100D8000991F0A94E2F7842B8C938CC0A2E3B0E005
:100D9000E2E3F0E08081482F8B81282F30E081E072
:100DA00090E0022E02C0880F991F0A94E2F7842B6C
:100DB0008C9378C08A81882309F074C08981282F98
:100DC00030E03D832C838C819D818330910561F1DE
:100DD0002C813D812430310534F48C819D81823019
:100DE000910569F05FC02C813D812430310589F186
:100DF0008C819D818530910509F440C053C0ABE3DF
:100E0000B0E0EBE3F0E08081482F8B81282F30E0C9
:100E100081E090E0022E02C0880F991F0A94E2F749
:100E2000809584238C933EC0A8E3B0E0E8E3F0E033
:100E30008081482F8B81282F30E081E090E0022EC6
:100E400002C0880F991F0A94E2F7809584238C933F
:100E500029C0A5E3B0E0E5E3F0E08081482F8B8175
:100E6000282F30E081E090E0022E02C0880F991F09
:100E70000A94E2F7809584238C9314C0A2E3B0E037
:100E8000E2E3F0E08081482F8B81282F30E081E081
:100E900090E0022E02C0880F991F0A94E2F7809515
:100EA00084238C9327960FB6F894DEBF0FBECDBF78
:100EB000CF91DF910895DF93CF93CDB7DEB727971A
:100EC0000FB6F894DEBF0FBECDBF89836A834B8314
:100ED0008B81882309F075C08981282F30E03F83FA
:100EE0002E838E819F818330910561F12E813F8118
:100EF0002430310534F48E819F818230910569F070
:100F0000D3C02E813F812430310589F18E819F81AC
:100F10008530910509F440C0C7C0AAE3B0E0EAE318
:100F2000F0E08081482F8A81282F30E081E090E036
:100F3000022E02C0880F991F0A94E2F7809584233D
:100F40008C93B2C0A7E3B0E0E7E3F0E08081482FE4
:100F50008A81282F30E081E090E0022E02C0880FC5
:100F6000991F0A94E2F7809584238C939DC0A4E393
:100F7000B0E0E4E3F0E08081482F8A81282F30E060
:100F800081E090E0022E02C0880F991F0A94E2F7D8
:100F9000809584238C9388C0A1E3B0E0E1E3F0E086
:100FA0008081482F8A81282F30E081E090E0022E56
:100FB00002C0880F991F0A94E2F7809584238C93CE
:100FC00073C08B81813009F06FC08981282F30E098
:100FD0003D832C838C819D818330910551F12C813F
:100FE0003D812430310534F48C819D81823091051E
:100FF00061F05AC02C813D812430310571F18C8122
:101000009D8185309105E9F14FC0AAE3B0E0EAE3A4
:10101000F0E08081482F8A81282F30E081E090E045
:10102000022E02C0880F991F0A94E2F7842B8C933A
:101030003BC0A7E3B0E0E7E3F0E08081482F8A817E
:10104000282F30E081E090E0022E02C0880F991F27
:101050000A94E2F7842B8C9327C0A4E3B0E0E4E386
:10106000F0E08081482F8A81282F30E081E090E0F5
:10107000022E02C0880F991F0A94E2F7842B8C93EA
:1010800013C0A1E3B0E0E1E3F0E08081482F8A8162
:10109000282F30E081E090E0022E02C0880F991FD7
:1010A0000A94E2F7842B8C9327960FB6F894DEBF50
:1010B0000FBECDBFCF91DF910895DF93CF9300D0C6
:1010C00000D000D0CDB7DEB789836A835C834B83C1
:1010D0008981282F30E03E832D834D815E8143300E
:1010E000510559F18D819E818430910534F42D8113
:1010F0003E812230310569F05BC04D815E81443014
:10110000510579F18D819E818530910509F43DC0AD
:101110004FC0E9E3F0E08081282F30E08A81882FFA
:1011200090E0A90102C0559547958A95E2F7CA015A
:101130008170EB81FC8180833BC0E6E3F0E080813D
:10114000282F30E08A81882F90E0A90102C05595B0
:1011500047958A95E2F7CA018170EB81FC81808313
:1011600027C0E3E3F0E08081282F30E08A81882FD8
:1011700090E0A90102C0559547958A95E2F7CA010A
:101180008170EB81FC81808313C0E0E3F0E080811B
:10119000282F30E08A81882F90E0A90102C0559560
:1011A00047958A95E2F7CA018170EB81FC818083C3
:1011B00026960FB6F894DEBF0FBECDBFCF91DF915C
:1011C0000895DF93CF9300D000D0CDB7DEB78983E9
:1011D0006A838981282F30E03C832B838B819C811B
:1011E00083309105D9F02B813C812430310534F4D2
:1011F0008B819C818230910561F01EC02B813C81E6
:101200002430310581F08B819C818530910581F0FE
:1012100013C0EBE3F0E08A8180830EC0E8E3F0E0E6
:101220008A81808309C0E5E3F0E08A81808304C07D
:10123000E2E3F0E08A8180830F900F900F900F908F
:10124000CF91DF910895DF93CF9300D000D0CDB739
:10125000DEB789836A838981282F30E03C832B8322
:101260008B819C8183309105D9F02B813C81243086
:10127000310534F48B819C818230910561F01EC070
:101280002B813C812430310581F08B819C8185301C
:10129000910581F013C0EAE3F0E08A8180830EC0FB
:1012A000E7E3F0E08A81808309C0E4E3F0E08A812B
:1012B000808304C0E1E3F0E08A8180830F900F9087
:1012C0000F900F90CF91DF910895DF93CF9300D0CF
:1012D00000D00F92CDB7DEB789837B836A83898183
:1012E000282F30E03D832C838C819D8183309105B4
:1012F000E9F02C813D812430310534F48C819D81CD
:101300008230910561F026C02C813D812430310569
:10131000A1F08C819D8185309105B1F01BC0E9E37E
:10132000F0E08081EA81FB81808314C0E6E3F0E095
:101330008081EA81FB8180830DC0E3E3F0E080815E
:10134000EA81FB81808306C0E0E3F0E08081EA81EE
:10135000FB8180830F900F900F900F900F90CF9193
:10136000DF910895DF93CF93CDB7DEB76D970FB6BA
:10137000F894DEBF0FBECDBF8D8F82E060E042E00B
:101380000E94590682E060E043E00E94590683E033
:101390006D8D0E94E10882E061E044E00E94590600
:1013A00080E090E0A0E8BFE3898F9A8FAB8FBC8F7D
:1013B000698D7A8D8B8D9C8D20E030E04AEF54E46E
:1013C0000E941F02DC01CB018D8B9E8BAF8BB88FEF
:1013D0006D897E898F89988D20E030E040E85FE359
:1013E0000E94790388232CF481E090E09C8B8B8B06
:1013F0003FC06D897E898F89988D20E03FEF4FE750
:1014000057E40E94190318164CF5698D7A8D8B8D5F
:101410009C8D20E030E040E251E40E941F02DC019C
:10142000CB01BC01CD010E944900DC01CB019C8BAA
:101430008B8B0FC088EC90E09A8B898B89899A8975
:101440000197F1F79A8B898B8B899C8901979C8BEB
:101450008B8B8B899C89009769F714C06D897E8975
:101460008F89988D0E944900DC01CB019C8B8B8B6E
:101470008B899C89988B8F878F8598890197F1F745
:10148000988B8F8782E060E044E00E94590680E0FC
:1014900090E0A0E4B0E48B879C87AD87BE876B8526
:1014A0007C858D859E8520E030E04AEF54E40E94E3
:1014B0001F02DC01CB018F839887A987BA876F81D0
:1014C000788589859A8520E030E040E85FE30E94D6
:1014D000790388232CF481E090E09E838D833FC0C4
:1014E0006F81788589859A8520E03FEF4FE757E443
:1014F0000E94190318164CF56B857C858D859E8599
:1015000020E030E040E251E40E941F02DC01CB0108
:10151000BC01CD010E944900DC01CB019E838D837B
:101520000FC088EC90E09C838B838B819C8101971A
:10153000F1F79C838B838D819E8101979E838D83A0
:101540008D819E81009769F714C06F8178858985A8
:101550009A850E944900DC01CB019E838D838D8199
:101560009E819A83898389819A810197F1F79A8371
:1015700089836D960FB6F894DEBF0FBECDBFCF91B5
:10158000DF910895DF93CF93CDB7DEB76D970FB698
:10159000F894DEBF0FBECDBF8D8F82E061E042E0E8
:1015A0000E94590682E060E043E00E94590683E011
:1015B0006D8D0E94E10882E061E044E00E945906DE
:1015C00080E090E0A0E8BFE3898F9A8FAB8FBC8F5B
:1015D000698D7A8D8B8D9C8D20E030E04AEF54E44C
:1015E0000E941F02DC01CB018D8B9E8BAF8BB88FCD
:1015F0006D897E898F89988D20E030E040E85FE337
:101600000E94790388232CF481E090E09C8B8B8BE3
:101610003FC06D897E898F89988D20E03FEF4FE72D
:1016200057E40E94190318164CF5698D7A8D8B8D3D
:101630009C8D20E030E040E251E40E941F02DC017A
:10164000CB01BC01CD010E944900DC01CB019C8B88
:101650008B8B0FC088EC90E09A8B898B89899A8953
:101660000197F1F79A8B898B8B899C8901979C8BC9
:101670008B8B8B899C89009769F714C06D897E8953
:101680008F89988D0E944900DC01CB019C8B8B8B4C
:101690008B899C89988B8F878F8598890197F1F723
:1016A000988B8F8782E060E044E00E94590680E0DA
:1016B00090E0A0E4B0E48B879C87AD87BE876B8504
:1016C0007C858D859E8520E030E04AEF54E40E94C1
:1016D0001F02DC01CB018F839887A987BA876F81AE
:1016E000788589859A8520E030E040E85FE30E94B4
:1016F000790388232CF481E090E09E838D833FC0A2
:101700006F81788589859A8520E03FEF4FE757E420
:101710000E94190318164CF56B857C858D859E8576
:1017200020E030E040E251E40E941F02DC01CB01E6
:10173000BC01CD010E944900DC01CB019E838D8359
:101740000FC088EC90E09C838B838B819C810197F8
:10175000F1F79C838B838D819E8101979E838D837E
:101760008D819E81009769F714C06F817885898586
:101770009A850E944900DC01CB019E838D838D8177
:101780009E819A83898389819A810197F1F79A834F
:1017900089836D960FB6F894DEBF0FBECDBFCF9193
:1017A000DF910895DF93CF93CDB7DEB7E8970FB6FB
:1017B000F894DEBF0FBECDBF80E090E0A0E2B2E4BF
:1017C0008DAB9EABAFABB8AF6DA97EA98FA998AD1D
:1017D00020E030E04AEF54E40E941F02DC01CB011C
:1017E00089AB9AABABABBCAB69A97AA98BA99CA915
:1017F00020E030E040E85FE30E94790388232CF486
:1018000081E090E098AB8FA73FC069A97AA98BA926
:101810009CA920E03FEF4FE757E40E9419031816F8
:101820004CF56DA97EA98FA998AD20E030E040E28B
:1018300051E40E941F02DC01CB01BC01CD010E94DA
:101840004900DC01CB0198AB8FA70FC088EC90E07A
:101850009EA78DA78DA59EA50197F1F79EA78DA7A1
:101860008FA598A9019798AB8FA78FA598A90097E6
:1018700069F714C069A97AA98BA99CA90E9449009B
:10188000DC01CB0198AB8FA78FA598A99CA78BA74C
:101890008BA59CA50197F1F79CA78BA788E30E94D5
:1018A000B20980E090E0A0E2B1E48FA398A7A9A7D5
:1018B000BAA76FA178A589A59AA520E030E04AEFE4
:1018C00054E40E941F02DC01CB018BA39CA3ADA3B7
:1018D000BEA36BA17CA18DA19EA120E030E040E8D9
:1018E0005FE30E94790388232CF481E090E09AA3BF
:1018F00089A33FC06BA17CA18DA19EA120E03FEFF9
:101900004FE757E40E94190318164CF56FA178A50C
:1019100089A59AA520E030E040E251E40E941F0230
:10192000DC01CB01BC01CD010E944900DC01CB01EF
:101930009AA389A30FC088EC90E098A38F8F8F8D16
:1019400098A10197F1F798A38F8F89A19AA1019788
:101950009AA389A389A19AA1009769F714C06BA1E2
:101960007CA18DA19EA10E944900DC01CB019AA31C
:1019700089A389A19AA19E8F8D8F8D8D9E8D0197B0
:10198000F1F79E8F8D8F8CE00E94B20980E090E08D
:10199000A0E2B1E4898F9A8FAB8FBC8F698D7A8D6D
:1019A0008B8D9C8D20E030E04AEF54E40E941F02B2
:1019B000DC01CB018D8B9E8BAF8BB88F6D897E89BF
:1019C0008F89988D20E030E040E85FE30E94790342
:1019D00088232CF481E090E09C8B8B8B3FC06D8939
:1019E0007E898F89988D20E03FEF4FE757E40E9472
:1019F000190318164CF5698D7A8D8B8D9C8D20E01E
:101A000030E040E251E40E941F02DC01CB01BC0146
:101A1000CD010E944900DC01CB019C8B8B8B0FC058
:101A200088EC90E09A8B898B89899A890197F1F7E4
:101A30009A8B898B8B899C8901979C8B8B8B8B894B
:101A40009C89009769F714C06D897E898F89988D6C
:101A50000E944900DC01CB019C8B8B8B8B899C897C
:101A6000988B8F878F8598890197F1F7988B8F874F
:101A700081E00E94B20980E090E0A0E2B1E48B87AF
:101A80009C87AD87BE876B857C858D859E8520E094
:101A900030E04AEF54E40E941F02DC01CB018F8347
:101AA0009887A987BA876F81788589859A8520E08C
:101AB00030E040E85FE30E94790388232CF481E062
:101AC00090E09E838D833FC06F81788589859A855C
:101AD00020E03FEF4FE757E40E94190318164CF53A
:101AE0006B857C858D859E8520E030E040E251E469
:101AF0000E941F02DC01CB01BC01CD010E94490004
:101B0000DC01CB019E838D830FC088EC90E09C8329
:101B10008B838B819C810197F1F79C838B838D81D3
:101B20009E8101979E838D838D819E81009769F7A9
:101B300014C06F81788589859A850E944900DC01EF
:101B4000CB019E838D838D819E819A838983898138
:101B50009A810197F1F79A838983E8960FB6F894F2
:101B6000DEBF0FBECDBFCF91DF910895DF93CF933E
:101B700000D00F92CDB7DEB78A836B8319828A813A
:101B8000882319F48B81898306C08A81813019F4F6
:101B90008B81805C8983898180580E94B2090F9073
:101BA0000F900F90CF91DF910895DF93CF93CDB732
:101BB000DEB728970FB6F894DEBF0FBECDBF9D836A
:101BC0008C836E834F8328871B828E81882F90E0C1
:101BD000880F991F880F991F880F991F8B838B81FE
:101BE000805C0E94B2091A8219820FC029813A8151
:101BF0008C819D81FC01E20FF31F80810E94C20A4B
:101C000089819A8101969A83898389819A81883012
:101C1000910564F38F8168850E94B60D8E810E94C4
:101C2000C20A28960FB6F894DEBF0FBECDBFCF9183
:101C3000DF910895DF93CF9300D00F92CDB7DEB739
:101C40009B838A8319820EC08981282F30E08A8184
:101C50009B81FC01E20FF31F80810E94C20A8981EF
:101C60008F5F89838981282F30E08A819B81FC01E5
:101C7000E20FF31F8081882339F70F900F900F90A8
:101C8000CF91DF910895DF93CF93CDB7DEB781E099
:101C90000E94B209CF91DF910895DF93CF9300D0D6
:101CA0000F92CDB7DEB781E00E94DB058B838B817D
:101CB000282F30E089E69AE2AC01249FC001259FDD
:101CC000900D349F900D11248F5299439A838983EC
:101CD00089819A8120E137E2B9010E94EB0FCB01A3
:101CE0009A83898389819A810F900F900F90CF9169
:101CF000DF910895DF93CF93CDB7DEB72E970FB660
:101D0000F894DEBF0FBECDBF85E060E041E00E94E9
:101D10005B0785E061E041E00E945B0782E062E0F2
:101D200041E00E945B0782E063E041E00E945B07C4
:101D300082E064E041E00E945B0783E06FEF0E9475
:101D4000230982E060E040E00E945B0782E061E0FE
:101D500040E00E945B070E94D20B0E94A30580E036
:101D60000E94DB058093B60081E00E94DB05882F8E
:101D700090E09093B5008093B4008091B6008436D3
:101D8000B0F480E060E00E94B60D80E690E00E9432
:101D90001A0E81E060E00E94B60D80E690E00E949D
:101DA0001A0E85E060E040E00E945906D8CF80918D
:101DB000B4009091B50084369105A0F485E061E00F
:101DC00040E00E94590680E060E00E94B60D8CE67B
:101DD00090E00E941A0E80E060E00E94B60D0E9422
:101DE000B60FBDCF8091B4009091B50086399105B2
:101DF00050F48091B4009091B5008536910518F0AB
:101E00000E94B60FACCF8091B4009091B500883C91
:101E10009105B8F48091B4009091B500873991058F
:101E200080F085E060E040E00E94590680E060E0DC
:101E30000E94B60D88E790E00E941A0E0E94B60F2D
:101E40008ECF8091B4009091B500893C910508F443
:101E500086CF80E060E00E94B60D85E890E00E94A9
:101E60001A0E81E060E00E94B60D85E890E00E94C5
:101E70001A0E85E061E041E00E94590680E090E0A2
:101E8000AAE7B4E48B879C87AD87BE876B857C858A
:101E90008D859E8520E030E04AEF54E40E941F02C9
:101EA000DC01CB018F839887A987BA876F817885FA
:101EB00089859A8520E030E040E85FE30E9479035D
:101EC00088232CF481E090E09E838D833FC06F8156
:101ED000788589859A8520E03FEF4FE757E40E9497
:101EE000190318164CF56B857C858D859E8520E041
:101EF00030E040E251E40E941F02DC01CB01BC0152
:101F0000CD010E944900DC01CB019E838D830FC06F
:101F100088EC90E09C838B838B819C810197F1F707
:101F20009C838B838D819E8101979E838D838D8180
:101F30009E81009769F714C06F81788589859A859D
:101F40000E944900DC01CB019E838D838D819E819F
:101F50009A83898389819A810197F1F79A8389838A
:101F600085E060E041E00E945906F9CEDF93CF930F
:101F7000CDB7DEB72091B4003091B50000D000D0CD
:101F800000D0EDB7FEB731968AEA90E09183808366
:101F900081E990E093838283358324830E94361005
:101FA0008DB79EB706960FB6F8949EBF0FBE8DBF35
:101FB00081E060E00E94B60D84E990E00E941A0E74
:101FC0008AEA90E00E941A0E89E990E00E941A0EB7
:101FD000CF91DF910895AA1BBB1B51E107C0AA1F37
:101FE000BB1FA617B70710F0A61BB70B881F991FBA
:101FF0005A95A9F780959095BC01CD0108952F922F
:102000003F924F925F926F927F928F929F92AF9288
:10201000BF92CF92DF92EF92FF920F931F93CF93D5
:10202000DF93CDB7DEB7CA1BDB0B0FB6F894DEBF6C
:102030000FBECDBF09942A88398848885F846E8492
:102040007D848C849B84AA84B984C884DF80EE80DC
:10205000FD800C811B81AA81B981CE0FD11D0FB6E5
:10206000F894DEBF0FBECDBFED010895AEE0B0E045
:10207000ECE3F0E10C940D100D891E8986E08C8351
:102080001A8309838FEF9FE79E838D839E01275ECE
:102090003F4FCE0101966F89788DA9010E945A1099
:1020A0002F813885020F131FF80110822E96E4E06D
:1020B0000C942910ABE0B0E0E0E6F0E10C94FF0FE7
:1020C0003C012B015A01FC0117821682838181FD9C
:1020D00003C06FEF7FEFC6C19AE0892E1E010894FE
:1020E000211C311CF3012381F20123FD859123FF83
:1020F00081912F01882309F4B2C1853239F423FD7F
:10210000859123FF81912F01853229F490E0B3015D
:102110000E944D12E7CF982FFF24EE249924FFE16F
:10212000FF15D0F09B3269F09C3228F4903259F0C0
:10213000933291F40EC09D3249F0903369F441E03E
:1021400024C052E0F52A84E0F82A28C098E0F92A51
:1021500025C0E0E1FE2A22C0F7FC29C0892F805368
:102160008A3070F4F6FE05C0989C902C1124980ECD
:1021700015C0E89CE02C1124E80EF0E2FF2A0EC006
:102180009E3229F4F6FC6BC140E4F42A07C09C3669
:1021900019F450E8F52A02C0983649F4F20123FDFB
:1021A000959123FF91912F01992309F0B8CF892FA1
:1021B0008554833018F08052833038F444E050E086
:1021C000A40EB51E5FE359830FC0933631F09337E9
:1021D00079F0933509F056C020C0F50180818983DC
:1021E00042E050E0A40EB51E610101E010E012C013
:1021F000F501C080D180F6FC03C06FEF7FEF02C015
:10220000692D70E042E050E0A40EB51EC6010E94A8
:1022100042128C015FE7F52214C0F501C080D18025
:10222000F6FC03C06FEF7FEF02C0692D70E042E063
:1022300050E0A40EB51EC6010E9437128C0150E872
:10224000F52AF3FE07C01AC080E290E0B3010E94B5
:102250004D12EA948E2D90E008171907A8F30EC0CE
:10226000F601F7FC8591F7FE81916F0190E0B301D3
:102270000E944D12E110EA94015010400115110521
:1022800079F7EAC0943611F0993669F5F7FE08C07F
:10229000F501208131814281538184E090E00AC0C0
:1022A000F501808191819C01442737FD4095542F91
:1022B00082E090E0A80EB91E9FE6F92257FF09C000
:1022C00050954095309521953F4F4F4F5F4FE0E837
:1022D000FE2ACA01B901A1012AE030E00E94791268
:1022E000D82ED21840C0953729F41F2D1F7E2AE022
:1022F00030E01DC01F2D197F9F3661F0903720F40C
:10230000983509F0ACC00FC0903739F0983709F014
:10231000A6C004C028E030E00AC0106114FD1460BB
:1023200020E130E004C014FD166020E132E017FF28
:1023300008C0F501608171818281938144E050E0A1
:1023400008C0F50180819181BC0180E090E042E00D
:1023500050E0A40EB51EA1010E947912D82ED21809
:102360008FE7F82EF122F6FE0BC05EEFF522D914AE
:1023700038F4F4FE07C0F2FC05C08FEEF82202C06C
:102380001D2D01C0192DF4FE0DC0FE01ED0DF11D36
:102390008081803319F499EEF92208C01F5FF2FEA4
:1023A00005C003C08F2D867809F01F5F0F2DF3FC49
:1023B00014C0F0FE0FC01E1510F09D2C0BC09D2CFC
:1023C0009E0C911A1E2D06C080E290E0B3010E947F
:1023D0004D121F5F1E15C0F304C01E1510F4E11A44
:1023E00001C0EE2404FF0FC080E390E0B3010E941F
:1023F0004D1202FF1DC001FD03C088E790E00EC032
:1024000088E590E00BC0802F867891F001FF02C034
:102410008BE201C080E2F7FC8DE290E0B3010E9404
:102420004D1206C080E390E0B3010E944D129A94D1
:10243000D914C0F3DA94F101ED0DF11D808190E023
:10244000B3010E944D12DD20A9F706C080E290E0A2
:10245000B3010E944D12EA94EE20C1F743CEF3017E
:1024600066817781CB012B96E2E10C941B10FC0175
:102470000590615070400110D8F7809590958E0FAF
:102480009F1F0895FC016150704001900110D8F722
:10249000809590958E0F9F1F08950F931F93CF9354
:1024A000DF938C01EB018B8181FF1BC082FF0DC08C
:1024B0002E813F818C819D812817390764F4E88142
:1024C000F9810193F983E88306C0E885F985802FB7
:1024D0000995892B31F48E819F8101969F838E838C
:1024E00002C00FEF1FEFC801DF91CF911F910F9135
:1024F0000895FA01AA27283051F1203181F1E8949A
:102500006F936E7F6E5F7F4F8F4F9F4FAF4FB1E0E6
:102510003ED0B4E03CD0670F781F891F9A1FA11DE1
:10252000680F791F8A1F911DA11D6A0F711D811DE2
:10253000911DA11D20D009F468943F912AE0269FA7
:1025400011243019305D3193DEF6CF010895462F06
:102550004770405D4193B3E00FD0C9F7F6CF462FE7
:102560004F70405D4A3318F0495D31FD4052419350
:1025700002D0A9F7EACFB4E0A6959795879577950D
:102580006795BA95C9F700976105710508959B0194
:10259000AC010A2E06945795479537952795BA951D
:1025A000C9F7620F731F841F951FA01D0895F8942B
:0225B000FFCF5B
:1025B2005741544552204F46462121004D4F544F1A
:1025C20052204F4E202020004D4F544F52204F4654
:1025D20046202020004F56455220464C4F5721217D
:1025E2000025640056203D200020202020202000CD
:0825F2000000000000000000E1
:00000001FF
